:020000040800F2
:1000000000000220E52E0008492E00084B2E0008B3
:100010004D2E00084F2E0008512E00080000000051
:10002000000000000000000000000000532E000847
:10003000552E000800000000572E0008592E000819
:10004000352F0008352F0008352F0008352F000800
:10005000612E0008692E0008352F0008352F000892
:10006000352F0008352F0008352F0008352F0008E0
:10007000352F0008352F0008352F0008352F0008D0
:10008000352F0008352F0008352F00086D2E000889
:100090007D2E00088D2E00089D2E0008352F0008AB
:1000A000352F0008352F0008352F0008352F0008A0
:1000B000352F0008352F0008352F0008352F000890
:1000C000352F0008352F0008352F0008352F000880
:1000D000AD2E0008352F0008352F0008352F0008F9
:1000E000352F0008352F0008352F0008352F000860
:1000F000352F0008352F0008352F0008352F000850
:10010000352F0008352F0008352F0008352F00083F
:10011000352F0008352F0008352F0008352F00082F
:10012000352F0008352F0008352F0008352F00081F
:10013000352F00080000000000000000352F0008E7
:10014000352F0008352F0008352F0008352F0008FF
:10015000352F0008352F0008352F0008352F0008EF
:10016000352F0008352F0008352F0008352F0008DF
:10017000352F0008352F0008352F0008000000003B
:1001800000000000BD2E000800000000000000007C
:10019000352F00080000000000000000352F000887
:1001A000000000000000000000000000352F0008E3
:1001B000C12E0008352F0008352F0008352F000804
:0401C000352F0008CF
:1001C4000348044B834202D0034B03B118477047E2
:1001D4000C0000200C000020000000000548064927
:1001E4000B1AD90F01EBA301491002D0034B03B141
:1001F400184770470C0000200C000020000000008D
:1002040010B5064C237843B9FFF7DAFF044B13B15A
:100214000448AFF300800123237010BD0C000020BC
:1002240000000000382F000808B5044B1BB1044936
:100234000448AFF30080BDE80840CFE700000000A9
:1002440010000020382F000870B50D4E0D4D761BA0
:10025400B61006D0002455F8043B01349847A64252
:10026400F9D1094E094D761B02F064FEB61006D092
:10027400002455F8043B01349847A642F9D170BDD7
:1002840074340008743400087834000874340008A6
:10029400F0B4860746D0541E002A3CD0CAB20346A6
:1002A40001E0013C37D303F8012B9D07F9D1032C5E
:1002B4002AD9CDB245EA05250F2C45EA054534D99E
:1002C400A4F1100222F00F0C03F120071609674471
:1002D40003F1100242E9045542E902551032BA42D0
:1002E400F8D1721C14F00C0F03EB021204F00F0689
:1002F40013D0331F23F003030433134442F8045B85
:100304009342FBD106F003042CB1CAB21C4403F897
:10031400012B9C42FBD1F0BC704734461346002CA1
:10032400F3D1F8E714460346C1E71A462646E0E748
:1003340053B94AB9002908BF00281CBF4FF0FF3148
:100344004FF0FF3000F06EB9ADF1080C6DE904CE4A
:1003540000F006F8DDF804E0DDE9022304B070479C
:100364002DE9F047089D04468C46002B40F083801D
:100374008A42174647D9B2FA82F242B1C2F120004A
:1003840024FA00F09140974040EA010C94404FEA6F
:100394001748230CBCFBF8F61FFA87FE08FB16C1AE
:1003A40043EA014306FB0EF1994209D9FB1806F111
:1003B400FF3080F01981994240F21681023E3B449D
:1003C4005B1AA4B2B3FBF8F008FB103344EA03440D
:1003D40000FB0EFEA64509D93C1900F1FF3380F05D
:1003E4000581A64540F2028102383C4440EA0640B9
:1003F400A4EB0E0400261DB1D4400023C5E900433C
:100404003146BDE8F08702B9FFDEB2FA82F2002A73
:1004140050D1CB1B4FEA174E1FFA87F80126B3FBC6
:10042400FEFC210C0EFB1C3341EA034108FB0CF3D8
:100434008B4207D979180CF1FF3002D28B4200F2BB
:10044400E9808446C91AA3B2B1FBFEF00EFB101179
:1004540043EA014408FB00F8A04507D93C1900F120
:10046400FF3302D2A04500F2D9801846A4EB080459
:1004740040EA0C40BFE78B4209D9002D00F0B1805F
:100484000026C5E9000130463146BDE8F087B3FADD
:1004940083F6002E4AD18B4202D3824200F2B88006
:1004A400841A61EB030101208C46002DA8D0C5E914
:1004B400004CA5E7C2F1200320FA03F6974001FAA5
:1004C40002F04FEA174ED9403043030CB1FBFEF65D
:1004D4001FFA87F80EFB161143EA014306FB08F1E5
:1004E400994204FA02F409D9FB1806F1FF3C80F0A2
:1004F4008D80994240F28A80023E3B445B1A81B26D
:10050400B3FBFEF00EFB103341EA034100FB08F39A
:100514008B4207D9791800F1FF3C73D28B4271D911
:1005240002383944CB1A40EA064678E7C6F1200C73
:1005340003FA06F422FA0CF31C4320FA0CF701FA2E
:1005440006F34FEA144E21FA0CF11F433B0CB1FBA6
:10055400FEF91FFA84F80EFB191143EA014109FB65
:1005640008FA8A4502FA06F200FA06F308D9611875
:1005740009F1FF3048D28A4546D9A9F1020921443C
:10058400A1EB0A01BFB2B1FBFEF00EFB101147EA6A
:10059400014700FB08F8B84507D9E71900F1FF3116
:1005A4002ED2B8452CD90238274440EA0940A7EB9B
:1005B4000807A0FB02894F45C64649461AD317D0FF
:1005C4005DB1B3EB0E0267EB010707FA0CFCF240D6
:1005D4004CEA0202F740C5E9002700263146BDE88F
:1005E400F0872E4628460BE70646E9E61846FDE660
:1005F4004345E5D2B8EB020E69EB04010138DFE7AD
:100604000846D2E760468DE78146B9E7664675E756
:1006140030464AE7ACF1020C394413E702383C4453
:1006240024E700BF704700BF10B504460E4B18788E
:100634004FF47A73B3FBF0F30C4A1068B0FBF3F099
:1006440000F068FB68B90F2C01D901200AE00022F0
:1006540021464FF0FF3000F0FFFA054B1C600020EC
:1006640000E0012010BD00BF0000002008000020B1
:100674000400002008B50B4B1A6842F400721A609B
:100684001A6842F480621A601A6842F480721A602E
:10069400032000F0C3FA0020FFF7C6FF02F010FAAF
:1006A400002008BD003C0240034A1168034B1B783C
:1006B4000B441360704700BF280000200000002096
:1006C400014B1868704700BF28000020002800F084
:1006D400718138B504460368AE4A934208D002F5E6
:1006E4008062934204D040F21D11AB4802F0E6F957
:1006F400237E012B00F29680637E012B00F298800A
:10070400A37E012B00F29A80E37E012B00F29C80F1
:10071400237F012B00F29E80637F012B00F2A080D7
:10072400A3684BB1B3F1804F06D0B3F1004F03D0AF
:10073400B3F1404F40F09A80E3684BB1B3F1807F4E
:1007440006D0B3F1007F03D0B3F1407F40F0948032
:10075400236963B3B3F5803F29D0B3F5003F26D0B6
:10076400B3F5403F23D0B3F5802F20D0B3F5A02FAD
:100774001DD0B3F5C02F1AD0B3F5E02F17D0B3F5C1
:10078400002F14D0B3F5102F11D0B3F5202F0ED0B5
:10079400B3F5302F0BD0B3F5402F08D0B3F5502F5D
:1007A40005D0B3F5602F02D0B3F5702F6AD1636919
:1007B400A3B1B3F5801F11D0B3F5001F0ED0B3F56C
:1007C400401F0BD0B3F5800F08D0B3F5A00F05D0B0
:1007D400B3F5C00F02D0B3F5E00F59D16368013B04
:1007E400B3F5806F5AD294F82030002B5CD0226885
:1007F400136843F001031360FFF762FF05462368A3
:100804005A6812F0010F53D1FFF75AFF401B0A2810
:10081400F5D9636A43F400336362052384F8203016
:10082400012038BD4FF48F715B4802F047F963E74C
:1008340040F21F11584802F041F961E74FF49071FA
:10084400554802F03BF95FE740F22111524802F0AB
:1008540035F95DE74FF491714F4802F02FF95BE7EA
:1008640040F223114C4802F029F959E74FF49271F0
:10087400494802F023F95FE740F22511464802F0A7
:100884001DF965E74FF49371434802F017F98EE7B9
:1008940040F22711404802F011F99FE74FF4947198
:1008A4003D4802F00BF99EE7204602F049F99EE725
:1008B4001A6822F002021A60FFF702FF0546236855
:1008C4005A6812F0020F0DD0FFF7FAFE401B0A28F7
:1008D400F5D9636A43F400336362052384F8203056
:1008E40001209EE7227E012A3DD01A6822F0800270
:1008F4001A60637E012B3BD02268136823F0400307
:100904001360A37E012B39D02268136823F02003DF
:100914001360E37E012B37D02268136843F0100381
:100924001360237F012B39D02268136823F0080356
:100934001360637F012B37D02268136823F004030C
:100944001360A368E2681343226913436269134383
:100954006268013A21681343CB610020606201237D
:1009640084F820305DE71A6842F080021A60C0E71C
:100974002268136843F040031360C2E722681368D7
:1009840043F020031360C4E72268136823F01003C4
:100994001360C6E700640040502F00082268136803
:1009A40043F008031360C4E72268136843F00403A8
:1009B4001360C6E70120704770477047704770475F
:1009C400704770477047704770477047704770476B
:1009D40070472DE9F84F054603685C69D3F8048035
:1009E4009F68D3F80CB0D3F810A0D3F8189014F083
:1009F40001063BD017F0010616D001229A6017F0C9
:100A0400020F08D117F0040F0CD117F0080606D016
:100A14004FF4805608E0FFF7CFFF002604E0FFF70D
:100A2400CEFF01E04FF4006617F4807F0DD02B68F1
:100A34004FF480729A6017F4007F40F0868017F4B8
:100A4400806F00F0868046F4005617F4803F0DD086
:100A54002B684FF480329A6017F4003F40F0838093
:100A640017F4802F00F0838046F4004614F0080F3A
:100A740007D01BF0100F04D046F400762B68102228
:100A8400DA6014F0040F02D01BF0080F79D114F0CF
:100A9400020F04D02B68DB6813F0030F78D114F035
:100AA400400F07D01AF0100F04D046F480662B686C
:100AB40010221A6114F0200F02D01AF0080F6BD123
:100AC40014F0100F04D02B681B6913F0030F6AD1C4
:100AD40014F4003F02D018F0100F68D114F4803FD2
:100AE40002D018F0080F69D114F4004F7AD018F02E
:100AF400040F74D014F4807F04D019F0010F01D0D6
:100B040046F0010614F4007F04D019F0020F01D05E
:100B140046F0020614F4806F04D019F0040F01D0DB
:100B240046F0040614F4006F59D019F0700956D039
:100B3400B9F1400F65D058D8B9F1200F5ED0B9F1A2
:100B4400300F42D146F0200644E02846FFF735FF37
:100B54007BE717F4006F02D046F4804675E7284619
:100B6400FFF72EFF71E72846FFF728FF7EE717F40B
:100B7400002F02D046F4803678E72846FFF721FF9D
:100B840074E72B680822DA602846FFF71CFF7EE72B
:100B94002846FFF717FF82E72B6808221A612846C8
:100BA400FFF713FF8CE72846FFF70EFF90E72B684B
:100BB40010225A602846FFF709FF8FE72B680822A6
:100BC4005A602846FFF703FF8EE7B9F1100F01D1F1
:100BD40046F008062A68936923F0700393612B6832
:100BE40004225A609EB9BDE8F88FB9F1500F0BD0BA
:100BF400B9F1600FEED146F48076EBE746F01006CB
:100C0400E8E746F04006E5E746F08006E2E76B6A6F
:100C14001E436E622846FFF7DBFEE4E710B5044688
:100C2400C31E042B0FD80A4AD36823F4E0631B04C1
:100C34001B0C240204F4E064234343F0BF6343F435
:100C44000033D36010BD9021024801F037FFEAE77A
:100C540000ED00E0D02F000870B505460C4616469E
:100C64000F2A25D80F2C28D81B4BDB68C3F302238B
:100C7400C3F10701042928BF04211A1D062A21D91A
:100C8400033B4FF0FF3202FA01F124EA01049C40D5
:100C940002FA03F326EA03063443002D14DB24018D
:100CA400E4B205F1604505F5614585F8004370BD82
:100CB400A8210A4801F002FFD4E7A921074801F05E
:100CC400FDFED1E70023DCE705F00F052401E4B2C3
:100CD400034B5C55EBE700BF00ED00E0D02F0008AC
:100CE40014ED00E010B5041E0ADB002C07DB04F051
:100CF4001F02640901239340044A42F8243010BDC2
:100D0400BC21034801F0DAFEEFE700BF00E100E098
:100D1400D02F00080138B0F1807F0AD2064B58600A
:100D2400064AF02182F823100020986007221A60F6
:100D340070470120704700BF10E000E000ED00E0C4
:100D4400A0B110B504460268094B9A4203D0682149
:100D5400084801F0B3FE63791BB1012363710020DD
:100D640010BD2371204601F043FFF6E701207047D0
:100D7400003002405030000890F83530DBB2022BCE
:100D840003D08023436501207047052380F8353064
:100D94000268136823F00103136000207047000009
:100DA400274BDB6813F0100F07D0264AD36943F0B2
:100DB4001003D361224B1022DA60214BDB6813F05D
:100DC400200F07D01F4AD36943F00803D3611C4B9B
:100DD4002022DA601A4BDB6813F0400F07D0194A5F
:100DE400D36943F00403D361154B4022DA60144BFA
:100DF400DB6813F0800F07D0124AD36943F0020373
:100E0400D3610F4B8022DA600D4BDB6813F4807FD3
:100E140008D00C4AD36943F00103D361084B4FF463
:100E24008072DA60064BDB6813F0020F07D0054AC4
:100E3400D36943F02003D361014B0222DA60704787
:100E4400003C02402C0000207047704710B53A4B1C
:100E5400DB6813F4F97F13D0384B1B78DBB2012B1A
:100E64003BD0364B1B78DBB2022B3CD0334B5C6956
:100E7400FFF796FF2046FFF7E8FF304B00221A7079
:100E84002D4BDB6813F0010F13D02B4B0122DA60DA
:100E94002A4B1B78DBB2934228D0284B1B78DBB259
:100EA400022B41D0254B5869FFF7CEFF234B00227C
:100EB4001A70224B1B787BB91F4B1A6922F0FF0270
:100EC4001A611A6922F080721A611A6922F000729A
:100ED4001A611A4B00221A7610BD184BDC684FF0C9
:100EE400FF32DA60C4E7154B1C69C1E7134B5A683B
:100EF400013A5A605B685BB1104CE068FFF7A4FFED
:100F0400E3680133E360E068217A00F019F8D0E780
:100F14000A4B4FF0FF34DC6000221A7000F04EF8E8
:100F24002046FFF791FFC4E700F048F8034B186927
:100F3400FFF78AFFBAE700BF003C02402C00002004
:100F440038B505460C46072809D8032C0DD8ACB192
:100F5400012C2BD0022C0ED04FF440700FE040F245
:100F6400D931144801F0AAFDEFE740F2DA31114813
:100F740001F0A4FDEBE74FF4007000E000200E4BFD
:100F8400196921F4407119611A6902431A611A69D5
:100F940022F0F8021A61186940EAC50040F0020024
:100FA40018611A6942F480321A6138BD4FF48070B6
:100FB400E5E700BFD0300008003C0240164B1B6838
:100FC40013F4007F10D0144B1A6822F400721A60D4
:100FD4001A6842F400621A601A6822F400621A6005
:100FE4001A6842F400721A600B4B1B6813F4806F8A
:100FF40010D0094B1A6822F480621A601A6842F40D
:1010040080521A601A6822F480521A601A6842F4F4
:1010140080621A60704700BF003C02402DE9F04135
:1010240082B007460E46AE4B98421FD003F580634C
:1010340098421BD003F58063984217D003F5806370
:10104400984213D003F5806398420FD003F5806370
:1010540098420BD003F58063984207D003F5806370
:10106400984203D0AC219F4801F028FD33689AB21E
:1010740012B11B0C1B041BB1AD219A4801F01EFDDB
:101084007368012B19D9112B17D0022B15D0122BF1
:1010940013D0B3F5881F10D0B3F5041F0DD0B3F5EA
:1010A400441F0AD0B3F5901F07D0B3F5081F04D02E
:1010B400B3F5481F01D0032B01D1002491E0AE21E8
:1010C400884801F0FBFCF8E7F368032B13D8BA68EF
:1010D400610003238B4022EA0302F3688B4013432D
:1010E400BB607A6822EA05027368C3F30015A54061
:1010F40015437D6086E0C0217A4801F0DFFCE6E715
:10110400D121784801F0DAFC85E03369DBB1092BA1
:1011140019D0012B17D0022B15D0032B13D0042B7D
:1011240011D0052B0FD0062B0DD0072B0BD0082B7D
:1011340009D00A2B07D00B2B05D00C2B03D00D2B79
:1011440001D00F2B10D1E208083257F8220004F026
:10115400070399000F238B4020EA030033698B4077
:10116400034347F8223066E0DE215E4801F0A6FC26
:10117400E9E7062300E000238B40034302325A4987
:1011840041F82230594B9A686FEA080322EA0801B1
:10119400706810F4801F01D048EA0201534A91603C
:1011A400D26803EA0201706810F4001F01D048EA13
:1011B40002014E4AD160526803EA0201706810F4D9
:1011C400003F01D048EA0201484A516012681340C6
:1011D400716811F4803F01D048EA0203434A136066
:1011E40001340F2C78D80125A540336803EA05089B
:1011F40035EA0303F4D1736803F00303013B012BC5
:101204007FF662AF736803F00303032B0DD0B3685A
:10121400022B3FF675AFFA68610003238B4022EA84
:101224000302B3688B401343FB60736803F003034A
:10123400022B3FF46AAF3A68610003238B4022EA31
:101244000302736803F003038B4013433B6073682A
:1012540013F4403FC4D000230193254B5A6C42F44D
:1012640080425A645B6C03F480430193019BA2089F
:10127400911C1D4B53F8210004F0030399000F2324
:101284008B4020EA0300164B9F423FF474AF03F5F2
:1012940080639F4216D003F580639F4214D003F508
:1012A40080639F4212D003F580639F4210D003F500
:1012B40080639F420ED003F580639F423FF459AF91
:1012C400072359E7012357E7022355E7032353E78D
:1012D400042351E705234FE702B0BDE8F08100BFC6
:1012E400000002405431000800380140003C014035
:1012F4000038024070B5054614460E4621B1012C53
:1013040008D86CB1AE6170BD40F29D11064801F081
:10131400D5FBF4E74FF4CF71034801F0CFFBF0E7BE
:101324003604AE61EFE700BF543100082DE9F843FD
:1013340005460F4616469946DDF820802C68A468B9
:101344003C4214BF01240024B44214D0B8F1FF3F3E
:10135400F4D0FFF7B5F9A0EB0900404502D8B8F185
:10136400000FEBD1042385F841306B6C43F001038B
:101374006B64012000E00020BDE8F883704708B5E5
:10138400806B00238363C36290F84130DBB2082B87
:101394000DD103680222DA600268136843F4003353
:1013A40013600268136843F00203136008BD01234D
:1013B40080F84130FFF7E2FFF8E770477047704765
:1013C400704770477047704790F8413013F0020F30
:1013D4003AD010B50446002380F84030082380F842
:1013E40041300268136823F4F813136003681A6821
:1013F40012F0040F11D19A6812F0200F20D00222AB
:10140400DA600268136843F40033136002681368F7
:1014140043F002031360002010BD1A6822F0040296
:101424001A60C36B094A1A65C06BFFF7A5FC002854
:10143400F1D0012384F841302046FFF7BEFFEAE7EC
:10144400012380F84130E6E7002070478313000849
:1014540010B5044603689A68196812F0040F40D066
:1014640011F4802F3DD090F84120D2B2122A0DD031
:1014740090F84120D2B2222A20D02046FFF7A1FFC3
:1014840010BD136823F480231360F6E72268916883
:1014940011F0040FF1D0E16A0029F2D0626A1278E7
:1014A40083F82020626A01326262E26A013AE262EF
:1014B400ECE7136823F480231360DEE72268916865
:1014C40011F0040FD9D0A16B0029F2D0226B93F84C
:1014D40020101170226B01322263A26B013AA263C5
:1014E400ECE712F0020F7CD011F4003F79D0022215
:1014F400DA602268136823F4E023136094F841301F
:10150400DBB2122B1DD094F84130DBB2222B31D048
:1015140094F84130DBB2022B58D094F84130DBB25E
:10152400082BADD12268536923F040635361012332
:1015340084F84130636C002B4FD12046FFF73DFF08
:101544009EE723681A6812F0040F09D01A6822F083
:1015540004021A60E36B1A68136823F00103136032
:101564002046FFF731FF012384F841302046FFF77E
:1015740027FF85E721680B6813F0040F13D00B686D
:1015840023F004030B60E36B1A68136823F0010370
:1015940013602046FFF718FF012384F841302046EA
:1015A400FFF70DFF6CE723689B6813F47C5FF0D0B2
:1015B400A36B002BEDD0236B91F820201A70236BC2
:1015C40001332363A36B013BA363ECE7012384F89A
:1015D40041302046FFF7F2FE52E72046FFF7CEFEE9
:1015E4004EE712F0080F14D011F4002F11D0082286
:1015F400DA6023681A6812F4800F06D01A6822F49D
:1016040010221A60012384F841302046FFF7DAFEE5
:1016140036E712F0010F31D011F4803F2ED00122B1
:10162400DA602268136823F470231360636C43F058
:101634000203636423681A6812F0040F17D01A684F
:1016440022F004021A60E36B134A1A65E06BFFF799
:1016540093FB00283FF414AF636C43F0040363640A
:10166400012384F841302046FFF788FE08E7012370
:1016740084F841302046FFF781FE01E712F0100F95
:101684003FF4FEAE11F4801F3FF4FAAE1022DA608C
:101694002046FFF798FEF3E6831300088164704741
:1016A40030B583B00446FFF70BF8002C00F0BA8085
:1016B400054622685C4B9A4204D04FF498715B480B
:1016C40001F0FCF96368FF2B71D8A368013B1F2B61
:1016D40073D8E3680BB1102B75D123691F2B78D80D
:1016E4006369A3B1B3F5807F11D0B3F5007F0ED049
:1016F400B3F5407F0BD0B3F5806F08D0B3F5A06F7E
:1017040005D0B3F5C06F02D0B3F5E06F67D1A3691C
:10171400012B6AD8236A402B01D0002B6BD1236A9A
:10172400402B03D0E3690BB1802B6AD194F841308C
:10173400002B6CD021680B6823F4F853A268013A9B
:1017440043EA02230B60A36C00932B460022202162
:101754002046FFF7EBFD28BB21680B6823F07F438D
:1017640023F0D0036568E26842EA0562E5692A432A
:10177400256A2A4313430B6021684A682C4B1340A3
:101784002569626942EA0542A5692A4313434B600D
:101794002268136843F00103136000236364012388
:1017A40084F84130002384F8403003B030BD40F267
:1017B40031111E4801F082F987E74FF499711B48F3
:1017C40001F07CF985E740F23311184801F076F90D
:1017D40083E74FF49A71154801F070F980E740F2FD
:1017E4003511124801F06AF991E74FF49B710F48E3
:1017F40001F064F98EE740F237110C4801F05EF90C
:101804008DE740F23B11094801F058F98EE784F85E
:101814004030204601F004FA41F288312046FFF7B7
:101824003DFF87E70120C0E7001000A0D431000885
:10183400FEF8E0FF002800F0F78070B50D4604467E
:101844000368013B0E2B6BD80F2D6FD87A4B1B68A6
:1018540003F00F03AB4208D2EBB2774A137013685C
:1018640003F00F03AB4240F0E180236813F0020F52
:1018740029D013F0040F04D0704A936843F4E05362
:101884009360236813F0080F04D06C4A936843F400
:1018940060439360A3687BB1802B0DD0902B0BD059
:1018A400A02B09D0B02B07D0C02B05D0D02B03D050
:1018B400E02B01D0F02B3FD1604A936823F0F00372
:1018C400A1680B439360236813F0010F4ED0636843
:1018D400032B37D86368012B3AD09A1E012A3ED9CC
:1018E400564A126812F0020F00F0A28053498A6827
:1018F40022F0030213438B60FEF7E2FE06464F4BD1
:101904009B6803F00C036268B3EB820F2ED0FEF7E2
:10191400D7FE801B41F288339842F0D9032076E049
:1019240040F25A21464801F0C9F88DE740F25B21A4
:10193400434801F0C3F889E740F27E21404801F0B2
:10194400BDF8B9E740F285213D4801F0B7F8C1E799
:101954003A4A126812F4003FC8D1012057E0374ACE
:10196400126812F0007FC1D1012050E0324B1B6895
:1019740003F00F03AB4207D9EAB22F4B1A701B686E
:1019840003F00F03AB4255D1236813F0040F14D0B6
:10199400E3685BB1B3F5805F08D0B3F5A05F05D011
:1019A400B3F5C05F02D0B3F5E05F31D1234A936849
:1019B40023F4E053E1680B439360236813F0080FAA
:1019C40015D023695BB1B3F5805F08D0B3F5A05F90
:1019D40005D0B3F5C05F02D0B3F5E05F1ED1174A5E
:1019E400936823F46043216943EAC103936000F0E0
:1019F40055F8124B9B68C3F30313124AD35CD840C7
:101A0400114B1860114B1868FEF70EFE002070BDD4
:101A140040F2C3210A4801F051F8C7E740F2CA2155
:101A2400074801F04BF8DAE7012070470120EEE7A0
:101A34000120ECE70120EAE7003C024000380240C4
:101A44005432000854340008080000200400002028
:101A5400014B1868704700BF0800002008B5FFF765
:101A6400F7FF044B9B68C3F38223034AD35CD8403B
:101A740008BD00BF003802406434000808B5FFF711
:101A8400E7FF044B9B68C3F34233034AD35CD8405B
:101A940008BD00BF00380240643400082DE9F84353
:101AA400594B9B6803F00C03082B08D00C2B5BD01C
:101AB400042B02D05548BDE8F8835548FBE7524B48
:101AC4005A6802F03F025B6813F4800F2BD04E4B30
:101AD4005B68C3F3881358010021C01A61F1000147
:101AE4008C0144EA90648501B5EB000864EB0109BC
:101AF4004FEAC90141EA58714FEAC800C01841F1E0
:101B040000014B0243EAD053440220461946002305
:101B1400FEF70EFC3C4B5B68C3F3014301335B00EF
:101B2400B0FBF3F0C7E7384B5B68C3F38813580185
:101B34000021C01A61F100018C0144EA906485011E
:101B44002E1A64EB0107F90041EA5671F000C0183F
:101B540041F100018B0243EA905384022046194666
:101B64000023FEF7E5FBD5E7274B5A6802F03F0256
:101B74005B6813F4800F26D0234B5B68C3F3881390
:101B840058010021C01A61F100018E0146EA9066F5
:101B940087013C1A66EB0105E90041EA5471E00053
:101BA400C01841F100014B0243EAD05344022046DD
:101BB40019460023FEF7BCFB134B5B68C3F30273A7
:101BC400B0FBF3F077E7104B5B68C3F388135C0159
:101BD4000025E41A65F10005AE0146EA9466A70102
:101BE400381B66EB0501CC0044EA5074C500E818C4
:101BF40044F100018B0243EA9053840220461946C3
:101C04000023FEF795FBD7E7003802400024F400D8
:101C140000127A00002800F08D8270B582B004466C
:101C240003680F2B3FD8236813F0010F55D0636866
:101C34002BB1B3F5803F02D0B3F5A02F39D18D4B32
:101C44009B6803F00C03042B3ED08A4B9B6803F083
:101C54000C03082B33D0874B9B6803F00C030C2B2D
:101C64006CD06368B3F5803F6ED0B3F5A02F71D00C
:101C7400804B1A6822F480321A601A6822F4802297
:101C84001A606368002B6FD0FEF71AFD0546794B86
:101C94001B6813F4003F20D1FEF712FD401B64289B
:101CA400F5D903204DE24FF45161734800F006FF6B
:101CB400B9E740F61551704800F000FFBFE76D4BDF
:101CC4005B6813F4800FC6D06A4B1B6813F4003FA3
:101CD40003D06368002B00F02F82236813F0020FF7
:101CE40073D0E368012B4ED823691F2B51D8614B65
:101CF4009B6813F00C0F57D05E4B9B6803F00C03EA
:101D0400082B4CD05B4B9B6803F00C030C2B78D056
:101D1400E368002B00F08480584B01221A60FEF720
:101D2400CFFC0546534B1B6813F0020F6FD1FEF72F
:101D3400C7FC401B0228F5D9032002E24D4B5B6827
:101D440013F4800F8DD0BFE74A4A136843F48033FD
:101D5400136096E7474B1A6842F480221A601A68A7
:101D640042F480321A608CE7FEF7AAFC0546414B28
:101D74001B6813F4003FB0D0FEF7A2FC401B64289C
:101D8400F5D90320DDE140F64D513B4800F096FEC5
:101D9400AAE740F64E51384800F090FEA7E7354BCD
:101DA4005B6813F4800FADD1324B1B6813F0020F44
:101DB40003D0E368012B40F0C1812E4A136823F05D
:101DC400F803216943EAC1031360236813F0080F81
:101DD40058D06369012B35D86369002B38D0284B60
:101DE40001221A60FEF76CFC0546224B5B6F13F070
:101DF400020F47D1FEF764FC401B0228F5D90320EB
:101E04009FE11C4B5B6813F4800F81D1CCE7194A26
:101E1400136823F0F803216943EAC1031360D4E78C
:101E2400164B00221A60FEF74BFC0546114B1B684B
:101E340013F0020FC9D0FEF743FC401B0228F5D96A
:101E440003207EE140F694510B4800F037FEC3E7CF
:101E54000B4B00221A60FEF733FC0546054B5B6F03
:101E640013F0020F0ED0FEF72BFC401B0228F5D90D
:101E7400032066E100380240D432000800004742E3
:101E8400800E4742236813F0040F7CD0A368012B13
:101E940001D9052B38D1B04B1B6C13F0805F39D1BD
:101EA40000230193AC4B1A6C42F080521A641B6CF1
:101EB40003F080530193019B0125A84B1B6813F485
:101EC400807F29D0A368012B3AD0052B3ED0A24BAA
:101ED4001A6F22F001021A671A6F22F004021A67BD
:101EE400A368002B3CD0FEF7EBFB06469A4B1B6F16
:101EF40013F0020F45D1FEF7E3FB801B41F2883358
:101F04009842F3D903201CE14FF45C61944800F03B
:101F1400D5FDC0E70025D0E7904A136843F48073E9
:101F24001360FEF7CDFB06468C4B1B6813F4807FD1
:101F3400C8D1FEF7C5FB801B0228F5D9032000E1B8
:101F4400854A136F43F001031367C9E7824B1A6F85
:101F540042F004021A671A6F42F001021A67BFE7DF
:101F6400FEF7AEFB06467C4B1B6F13F0020F08D046
:101F7400FEF7A6FB801B41F288339842F3D9032075
:101F8400DFE0002D40D1A369022B43D8A369002BC5
:101F940000F0D680704A926802F00C02082A00F021
:101FA4009E80022B40F08780E36913B1B3F5800F64
:101FB40036D1236A3F2B39D8636A323BB3F5BF7FEE
:101FC4003AD8A36A022B05D0042B03D0062B01D0E8
:101FD400082B37D1E36A023B0D2B39D8236B023B24
:101FE400052B3BD85F4B00221A60FEF769FB0546C0
:101FF400594B1B6813F0007F36D0FEF761FB401B82
:102004000228F5D903209CE0534A136C23F0805333
:102014001364B8E740F60361514800F04FFDB5E79B
:1020240040F60C614E4800F049FDC2E740F60D61F0
:102034004B4800F043FDBFE740F60E61484800F00E
:102044003DFDBEE740F60F61454800F037FDC1E7AE
:102054004FF46161424800F031FDBFE740F6116181
:102064003F4800F02BFDBDE7E369226A1343626A2F
:1020740043EA8213A26A5208013A43EA0243E26A3B
:1020840043EA0263226B43EA0273334A5360354BDB
:1020940001221A60FEF714FB04462F4B1B6813F051
:1020A400007F06D1FEF70CFB001B0228F5D90320A4
:1020B40047E0002045E02B4B00221A60FEF700FBAE
:1020C4000446254B1B6813F0007F06D0FEF7F8FA90
:1020D400001B0228F5D9032033E0002031E0012B56
:1020E40031D01D4B5B6803F48001E26991422CD12D
:1020F40003F03F02216A8A4229D1616A47F6C0721D
:102104001A40B2EB811F24D103F44031A26A520871
:10211400013AB1EB024F27D103F07062E16AB2EBEE
:10212400016F23D103F0E043226BB3EB027F1FD195
:10213400002006E001207047012002E0012000E0B9
:10214400002002B070BD0120FBE70120F9E7012067
:10215400F7E70120F5E700BF0038024000700040B7
:10216400D4320008600047420120EAE70120E8E792
:102174000120E6E7002800F0318110B50446036829
:10218400974A934210D0A2F5784293420CD002F5BC
:102194008062934208D002F57842934204D04FF40F
:1021A400A071904800F08AFC636813B1B3F5827F94
:1021B4003ED1A3682BB1B3F5806F02D0B3F5004FC5
:1021C4003CD1E368B3F5006F01D0002B3CD1A36987
:1021D400B3F5007F03D013B1B3F5802F3AD1E3698F
:1021E4006BB1082B0BD0102B09D0182B07D0202B48
:1021F40005D0282B03D0302B01D0382B30D1236AC3
:102204000BB1802B32D1636A0BB1102B34D1636ACA
:10221400002B59D123690BB1022B33D16369012BF4
:1022240036D86368B3F5827F38D00023E3615EE07B
:1022340040F241116B4800F041FCBAE74FF4A17140
:10224400684800F03BFCBCE740F24311654800F0ED
:1022540035FCBCE74FF4A271624800F02FFCBEE7E6
:1022640040F245115F4800F029FCC8E74FF4A37120
:102274005C4800F023FCC6E740F24711594800F0DF
:102284001DFCC4E74FF4A571564800F017FCC5E7E0
:1022940040F24B11534800F011FCC2E7E36933B339
:1022A400082B24D0102B22D0182B20D0202B1ED06A
:1022B400282B1CD0302B1AD0382B18D040F24F11B9
:1022C400484800F0FBFB12E0E3696BB1082B0BD02C
:1022D400102B09D0182B07D0202B05D0282B03D086
:1022E400302B01D0382B54D1002323616361A36ABE
:1022F40013B1B3F5005F52D1A36AB3F5005F54D0B4
:1023040094F85130002B5FD0022384F851302268B6
:10231400136823F040031360636803F48273A268B4
:1023240002F404421343E26802F400621343226994
:1023340002F002021343626902F001021343A2692C
:1023440002F400721343E26902F038021343226A72
:1023540002F080021343A26A02F40052216813437C
:102364000B60638B03F00403626A02F010022168BD
:1023740013434B60A36AB3F5005F2BD02268D36983
:1023840023F40063D36100206065012384F8513095
:1023940010BD40F25911134800F090FBA4E74FF42C
:1023A400B071104800F08AFBA6E7E36A591E4FF6A5
:1023B400FE72914202D813F0010FA1D140F26311D1
:1023C400084800F07BFB9BE784F85030204600F07F
:1023D4008FFC99E72368A28D1A61CFE7012070472B
:1023E40000300140543300087047000030B585B018
:1023F4000446026851689368C3F3801013F0400FD9
:1024040005D113F0010F02D011F0400F69D113F080
:10241400020F02D011F0800F67D1C3F3401513F0FF
:10242400200F03D110B913F4807F61D011F0200F75
:102434005ED078B194F85100C0B203285AD0606DD0
:1024440040F00400606500200090D068009090681F
:102454000090009865B1606D40F001006065002057
:10246400029090680290106820F040001060029A78
:1024740013F4807F09D0636D43F008036365002380
:10248400039323689B680393039B636D002B2FD0F6
:102494002268536823F0E0035360012384F8513029
:1024A40011F0030F2ED02268536823F00303536006
:1024B400E36C4BB1154A1A65E06CFEF75DFC18B18C
:1024C400636D43F040036365A36C8BB10F4A1A65D7
:1024D400A06CFEF751FC58B1636D43F04003636593
:1024E40006E0236C2046984702E0636C2046984738
:1024F40005B030BD00230193D36801939368019321
:10250400019BF5E72046FFF76FFFF1E7152500086B
:1025140008B5806B0023C387C386FFF765FF08BD3A
:1025240070B5044642685A4B9A423FD8E36813B1E7
:10253400B3F5005F40D123692BB1B3F5806F02D0AE
:10254400B3F5C06F3ED163694FF6F372134200D105
:1025540023B940F664614F4800F0B0FA2268136969
:1025640023F44053E1680B431361A36822691343C6
:1025740062691343E2691A432168CB6823F4164362
:1025840023F00C031343CB602268536923F4407394
:10259400A1690B43536123683F4A934218D002F563
:1025A4008062934214D0FFF759FA13E040F6616158
:1025B400384800F083FAB9E740F66261354800F024
:1025C4007DFAB8E740F66361324800F077FABAE77B
:1025D400FFF754FAE369B3F5004F2AD00026051833
:1025E40046EB06012D1846EB0101CB0043EA557377
:1025F400EA001546194663689A009B0F281846EBB3
:102604000101FDF795FE254DA5FB00325109642318
:1026140003FB11031B013233A5FB03235B0903F006
:10262400F00202EB011203F00F03216813448B60E4
:1026340070BD0026051846EB06012D1846EB010176
:10264400CB0043EA5573EA001546194662683346DF
:10265400921846EB0303281846EB0101FDF768FEC8
:102664000E4DA5FB00325109642303FB1103DB006B
:102674003233A5FB03235B095A0002F4F87202EB20
:10268400011203F00703216813448B60D0E700BFF5
:10269400A037A000D4330008001001401F85EB517F
:1026A400002800F0938010B504468369002B5DD0A8
:1026B4000368474A934218D0A2F54C42934214D07F
:1026C40002F58062934210D002F5806293420CD0EE
:1026D40002F58062934208D002F54442934204D04A
:1026E40040F273113B4800F0E9F9A36943B1B3F533
:1026F400807F05D0B3F5007F02D0B3F5407F2FD1A2
:10270400A36813B1B3F5805F4ED1E36913B1B3F598
:10271400004F4FD194F83D30002B51D0242384F83E
:102724003D302268D36823F40053D3602046FFF77A
:10273400F7FE2268136923F49043136122685369F6
:1027440023F02A0353612268D36843F40053D3600F
:1027540000202064202384F83D3084F83E3010BDEE
:102764004FF4BA711B4800F0A9F9C9E70368184A85
:102774009342C5D0A2F54C429342C1D002F5806287
:102784009342BDD002F580629342B9D002F58062D3
:102794009342B5D002F544429342B1D04FF4BC7198
:1027A4000C4800F08BF9ABE74FF4BD71094800F019
:1027B40085F9AAE740F27B11064800F07FF9A9E702
:1027C40084F83C30204600F005FBA7E70120704761
:1027D40000100140D43300082DE9F0438BB00024ED
:1027E4000594069407940894099401943D4B1A6B3C
:1027F40042F004021A631A6B02F004020192019A75
:1028040002941A6B42F080021A631A6B02F080027F
:102814000292029A03941A6B42F001021A631A6B31
:1028240002F001020392039A04941A6B42F002022A
:102834001A631B6B03F002030493049B2A4E0122C8
:1028440020213046FEF756FD4FF4005305934FF414
:10285400041306930794DFF8949005A94846FEF7FD
:10286400DDFB102305934FF00208CDF81880079480
:10287400032508950C27099705A93046FEF7CEFBDA
:1028840020230593012306930794089305A9304652
:10289400FEF7C4FBC02305930695079405A93046AB
:1028A400FEF7BCFB302305930695079405A948461B
:1028B400FEF7B4FB05950695079406F5806605A911
:1028C4003046FEF7ABFB4FF450430593CDF8188028
:1028D40007940895099705A93046FEF79FFB0BB0AE
:1028E400BDE8F083003802400000024000080240C6
:1028F40072B6FEE708B50B480B4B03601023436028
:1029040000238360C360036143610122027643763E
:102914008376C27603774377FDF7D8FE00B908BD06
:10292400FFF7E6FFF00000200064004008B504480B
:10293400044B0360FEF704FA00B908BDFFF7D8FFA3
:10294400A40000200030024008B50A480A4B036086
:10295400FF234360012282600023C360026143615C
:102964008261C3610362FEF79BFE00B908BDFFF7F5
:10297400BFFF00BF18010020001000A008B50C48DC
:102984000C4B03600023436083604FF40062C26019
:10299400036143618361036243624FF400538362C2
:1029A4000A23C362FFF7E6FB00B908BDFFF7A0FFE7
:1029B4004C0000200038004008B50A480A4B036068
:1029C4004FF4E133436000238360C36003610C224E
:1029D40042618361C361FFF763FE00B908BDFFF77D
:1029E40087FF00BFAC0000200044004000B595B054
:1029F4003422002107A8FDF74BFC00230293039324
:102A04000493059306930093214A116C41F080517D
:102A14001164126C02F080520092009A01931D4AD4
:102A2400136823F4404343F480431360136803F4AE
:102A340040430193019B012307934FF48033089390
:102A440002230D934FF480020E9204220F927822F7
:102A54001092119305221292139307A8FFF7DAF844
:102A640088B90F23029302230393902304934FF412
:102A7400805305930021069102A8FEF7DBFE20B9DE
:102A840015B05DF804FBFFF733FFFFF731FF00BF1C
:102A9400003802400070004008B5FDF7EBFDFFF779
:102AA400A5FFFFF799FEFFF725FFFFF73FFFFFF7AD
:102AB4004BFFFFF763FFFFF77FFFFEE77047000060
:102AC40010B582B0002400941C4B5A6C42F480422E
:102AD4005A645A6C02F480420092009A01941A6C6F
:102AE40042F080521A641B6C03F080530193019BE3
:102AF4000720FEF793F8224621460420FEF7ACF89F
:102B04000420FEF7EFF8224621460520FEF7A4F83C
:102B14000520FEF7E7F8224621460520FEF79CF83B
:102B24000520FEF7DFF8224621465120FEF794F8EF
:102B34005120FEF7D7F802B010BD00BF00380240A4
:102B440010B588B000230393049305930693079369
:102B54000268254B9A4201D008B010BD00240194AC
:102B640003F5EA331A6C42F000721A641A6C02F02C
:102B740000720192019A02941A6B42F001021A63E4
:102B84001B6B03F001030293029B4FF4C0530393A6
:102B9400022304930594032306930923079303A9AB
:102BA4001248FEF73BFA224621461320FEF754F85A
:102BB4001320FEF797F8224621461420FEF74CF81E
:102BC4001420FEF78FF8224621461520FEF744F81C
:102BD4001520FEF787F8224621461620FEF73CF81A
:102BE4001620FEF77FF8B7E70064004000000240BB
:102BF4000268094B9A4200D0704782B000230193C7
:102C0400064B1A6B42F480521A631B6B03F4805315
:102C14000193019B02B0704700300240003802402B
:102C24002DE9F04188B000230393049305930693A0
:102C3400079302682A4B9A4202D008B0BDE8F0819B
:102C440000240094274B9A6B42F002029A639A6B19
:102C540002F002020092009A01941A6B42F00202FE
:102C64001A631A6B02F002020192019A02941A6B1F
:102C740042F004021A631B6B03F004030293029BE9
:102C840004230393022604960594032506954FF026
:102C94000908CDF81C80144F03A93846FEF7BEF985
:102CA4004FF4C0630393049605940695CDF81C80F5
:102CB40003A90E48FEF7B2F9402303930496059442
:102CC40006950A23079303A93846FEF7A7F9224677
:102CD40021465C20FDF7C0FF5C20FEF703F8ACE75B
:102CE400001000A000380240000402400008024026
:102CF4002DE9F04389B000230393049305930693CD
:102D040007930268304B9A4202D009B0BDE8F083C1
:102D14000024009403F500331A6C42F480421A64D0
:102D24001A6C02F480420092009A01941A6B42F0E9
:102D340004021A631A6B02F004020192019A0294CB
:102D44001A6B42F002021A631B6B03F00203029334
:102D5400029B0225039504950594032606964FF0DD
:102D64000708CDF81C80DFF8689003A94846FEF7F1
:102D740055F90423039304950594069605270797AC
:102D840003A94846FEF74AF94FF480630393049578
:102D94000594069607970D4F03A93846FEF73EF9AA
:102DA40010230393049505940696CDF81C8003A97B
:102DB4003846FEF733F9224621462420FDF74CFF1E
:102DC4002420FDF78FFFA0E70038004000040240F4
:102DD4000008024000B589B00023039304930593CF
:102DE400069307930268154B9A4202D009B05DF826
:102DF40004FB0022019203F5FA33196C41F400310B
:102E04001964196C01F40031019101990292196B52
:102E140041F0010119631B6B03F001030293029B50
:102E24000C2303930223049305920323069307239D
:102E3400079303A90248FEF7F1F8D7E700440040DE
:102E440000000240FEE7FEE7FEE7FEE7FEE770470C
:102E54007047704708B5FDF727FC08BD08B5FDF7B6
:102E6400F5FF08BD7047000008B50248FDF7B1FD45
:102E740008BD00BFF000002008B50248FDF7A9FD19
:102E840008BD00BFF000002008B50248FDF7A1FD11
:102E940008BD00BFF000002008B50248FDF799FD09
:102EA40008BD00BFF000002008B50248FFF79EFAF5
:102EB40008BD00BF4C0000207047000008B5024860
:102EC400FEF7C6FA08BD00BF18010020034AD2F875
:102ED400883043F47003C2F88830704700ED00E096
:102EE400DFF834D00D480E490E4A002302E0D458CE
:102EF400C4500433C4188C42F9D30B4A0B4C00233E
:102F040001E013600432A242FBD3FFF7DFFFFDF7B9
:102F14009BF9FFF7C1FD704700000220000000206C
:102F24000C0000207C3400080C0000206401002008
:102F3400FEE70000F8B500BFF8BC08BC9E46704729
:0C2F4400F8B500BFF8BC08BC9E46704702
:102F50002F686F6D652F6368726973746F73636830
:102F6000726973746F666F726F752F53544D33327D
:102F7000437562652F5265706F7369746F72792F34
:102F800053544D3332437562655F46575F46345F35
:102F900056312E32372E302F447269766572732F78
:102FA00053544D3332463478785F48414C5F447215
:102FB000697665722F5372632F73746D3332663482
:102FC00078785F68616C5F63616E2E63000000005B
:102FD0002F686F6D652F6368726973746F736368B0
:102FE000726973746F666F726F752F53544D3332FD
:102FF000437562652F5265706F7369746F72792FB4
:1030000053544D3332437562655F46575F46345FB4
:1030100056312E32372E302F447269766572732FF7
:1030200053544D3332463478785F48414C5F447294
:10303000697665722F5372632F73746D3332663401
:1030400078785F68616C5F636F727465782E630077
:103050002F686F6D652F6368726973746F7363682F
:10306000726973746F666F726F752F53544D33327C
:10307000437562652F5265706F7369746F72792F33
:1030800053544D3332437562655F46575F46345F34
:1030900056312E32372E302F447269766572732F77
:1030A00053544D3332463478785F48414C5F447214
:1030B000697665722F5372632F73746D3332663481
:1030C00078785F68616C5F6372632E630000000054
:1030D0002F686F6D652F6368726973746F736368AF
:1030E000726973746F666F726F752F53544D3332FC
:1030F000437562652F5265706F7369746F72792FB3
:1031000053544D3332437562655F46575F46345FB3
:1031100056312E32372E302F447269766572732FF6
:1031200053544D3332463478785F48414C5F447293
:10313000697665722F5372632F73746D3332663400
:1031400078785F68616C5F666C6173685F65782E24
:10315000630000002F686F6D652F63687269737478
:103160006F736368726973746F666F726F752F53D4
:10317000544D3332437562652F5265706F736974B5
:103180006F72792F53544D3332437562655F4657E2
:103190005F46345F56312E32372E302F44726976B7
:1031A0006572732F53544D3332463478785F4841FB
:1031B0004C5F4472697665722F5372632F73746D1E
:1031C0003332663478785F68616C5F6770696F2E40
:1031D000630000002F686F6D652F636872697374F8
:1031E0006F736368726973746F666F726F752F5354
:1031F000544D3332437562652F5265706F73697435
:103200006F72792F53544D3332437562655F465761
:103210005F46345F56312E32372E302F4472697636
:103220006572732F53544D3332463478785F48417A
:103230004C5F4472697665722F5372632F73746D9D
:103240003332663478785F68616C5F717370692EB1
:10325000630000002F686F6D652F63687269737477
:103260006F736368726973746F666F726F752F53D3
:10327000544D3332437562652F5265706F736974B4
:103280006F72792F53544D3332437562655F4657E1
:103290005F46345F56312E32372E302F44726976B6
:1032A0006572732F53544D3332463478785F4841FA
:1032B0004C5F4472697665722F5372632F73746D1D
:1032C0003332663478785F68616C5F7263632E6353
:1032D000000000002F686F6D652F6368726973745A
:1032E0006F736368726973746F666F726F752F5353
:1032F000544D3332437562652F5265706F73697434
:103300006F72792F53544D3332437562655F465760
:103310005F46345F56312E32372E302F4472697635
:103320006572732F53544D3332463478785F484179
:103330004C5F4472697665722F5372632F73746D9C
:103340003332663478785F68616C5F7263635F659F
:10335000782E63002F686F6D652F636872697374D0
:103360006F736368726973746F666F726F752F53D2
:10337000544D3332437562652F5265706F736974B3
:103380006F72792F53544D3332437562655F4657E0
:103390005F46345F56312E32372E302F44726976B5
:1033A0006572732F53544D3332463478785F4841F9
:1033B0004C5F4472697665722F5372632F73746D1C
:1033C0003332663478785F68616C5F7370692E633E
:1033D000000000002F686F6D652F63687269737459
:1033E0006F736368726973746F666F726F752F5352
:1033F000544D3332437562652F5265706F73697433
:103400006F72792F53544D3332437562655F46575F
:103410005F46345F56312E32372E302F4472697634
:103420006572732F53544D3332463478785F484178
:103430004C5F4472697665722F5372632F73746D9B
:103440003332663478785F68616C5F756172742EB0
:1034500063000000000000000000000001020304FF
:0C34600006070809000000000102030438
:08346C00F8CEFF7F0100000013
:043474002D0200081D
:043478000502000841
:0C347C0001000000100000000024F4001B
:0400000508002EE5DC
:00000001FF
